159717553000617MULTILASER INDUSTRIAL S/A                                                                                     RRUA JOSEPHA GOMES DE SOUZA                                            EXTREMA                       MG37640000                                                                              191012NF001061466A1REA 000000008148600000000814862008201919092019211224
104091079000164D.N.SILVA AUTO PECAS                                   D.N SILVA                                              RRUA EDUARDO RIBEIRO. 3004                                             ITACOATIARA                   AM69100000                                                                              191200NF733551A   1REA 000000001608200000000160821508201230082012042224
104792573000156P.C.M.PEREIRA - ME                                                                                            RRUA  ANTONIO FIGUEIREDO. 74                                           MANAUS                        AM69042250                                                                              060302NF734029A   1REA 000000007445000000000744501608201216082012232224
163699169000100IOLANDA FERREIRA DE MOURA ME                           MERCEARIA IOLANDA                                      RRUA BARBOSA RODRIGUES                                                 MANAUS                        AM69063130                                                                              170812NF734135A   1REA 000000005320000000000532001708201217082012272224
104569736000136E.L.LOPES - ME                                         RIZZO POSTO DE LAVAGEM                                 RAV:DA COMPENSA Nº255                                                  MANAUS                        AM69035090                                                                              100606NF734366A   1REA 000000003138000000000313801708201217082012031225
122186583000120VALCIFRAN DE A. GONCALVES 97094358253                  BORRACHARIA E AUTOPECAS SHAMA                          RRUA JOAO PESSOA                                                       CODAJAS                       AM69450000                                                                              230415NF001115171C1REA 000000028228400000002822840804202107072021081225
103537054000189A.DE ARAUJO RIBEIRO - ME                               AUTO SOM E ELETRICA 4 RODAS                            RAV.PRINCESA ISABEL. 2955                                              BOA VISTA                     RR69312020                                                                              151204NF734978B   1REA 000000010631000000001063102008201219102012221225
114251284000101ADAHILSON RABELO DE ANDRADE                            DEL AUTO PECAS                                         RRUA BENJAMIN CONSTANT.2485                                            ITACOATIARA                   AM69100000                                                                              050506NF735021A   1REA 000000002713200000000271322008201204092012221225
111595002000197SERV-TEC COM. DE PECAS AUT. LTDA                       SERV-TEC DIESEL                                        RAVENIDA MARGARITA                                                     MANAUS                        AM69088265                                                                              211210NF735034A   1REA 000000002220500000000222052008201209092012231225
107590191000138W.S.DA SILVA AUTO PECAS                                THON AUTO PECAS                                        RRUA: ARQ. JOSE HENRIQUE BENTO RODRIGUES Nº 4153                       MANAUS                        AM69093149                                                                              191107NF735078A   1REA 000000001792800000000179282108201221082012271225
145990181000189ROBERT BOSCH LIMITADA                                  BOSCH                                                  RVIA ANHANGUERA KM 98                                                  CAMPINAS                      SP13065900                                                                              271004NF700999A   1REA 000000001537200000000153720905201216052012291225
101815342000122FILINTO E SOUZA LTDA-ME                                                                                       RRUA MANOEL FELIPE. 3244A                                              BOA VISTA                     RR69311220                                                                              010198JB.GP641051B1REA 000000000093600000000009361007201220082012052225